:1000000019C02BC02AC029C028C027C026C025C0BF
:1000100024C023C022C021C020C01FC01EC01DC0DC
:100020001CC01BC01AC019C018C017C016C015C00C
:1000300014C013C011241FBECFEFD4E0DEBFCDBF6C
:1000400011E0A0E0B1E0EAE5F1E102C005900D9217
:10005000A830B107D9F7A8D17EC8D2CF4F925F920E
:100060006F927F928F929F92AF92BF92CF92DF92C8
:10007000EF92FF920F931F93DF93CF93CDB7DEB72D
:1000800060970FB6F894DEBF0FBECDBFE982FA824B
:100090000B831C832D833E834F83588769877A8720
:1000A0008B879C8726016D807E808F809884A984B1
:1000B000BA84CB84DC84E980FA800B811C81C40182
:1000C000B30120E030E040E050E06BD5882361F4DC
:1000D000D201AD92BD92CD92DC921397F201A4822F
:1000E000B582C682D782FEC0C601B501A4019301C4
:1000F000BCD33B014C01C601B501A401930163D3FC
:100100006D877E878F87988BC801B70120E030E02C
:1001100040E752E49CD588230CF5F201A082B1821D
:10012000C282D382C801B701A40193019ED320E00B
:1001300030E040E752E48ED42D853E854F855889C6
:100140006DD3D20114966D937D938D939C931797E5
:100150008D859E85AF85B889F2010BC1C801B701B5
:1001600020E030E040EF52E472D588232CF5C8013E
:10017000B70120E030E040EF52E425D39058A401CD
:10018000930173D320E030E040E752E463D42D853F
:100190003E854F85588942D3D2016D937D938D93CF
:1001A0009C931397F201A482B582C682D7828D8573
:1001B0009E85AF85B889DDC0C801B70120E030E079
:1001C00044E353E444D588235CF58D859E85AF8553
:1001D000B889F20180839183A283B383D2011496FC
:1001E000AD92BD92CD92DC921797C801B70120E085
:1001F00030E040EF52E4E7D29058A401930135D3A8
:1002000020E030E040E752E425D42D853E854F853F
:10021000588904D3F2016087718782879387ADC0C4
:10022000C801B70120E030E040E753E410D588234F
:100230005CF58D859E85AF85B889F20180839183B9
:10024000A283B383C801B70120E030E040E753E464
:10025000BAD29058A401930108D320E030E040E7DF
:1002600052E4F8D32D853E854F855889D7D2D201E7
:1002700014966D937D938D939C931797F201A086AE
:10028000B186C286D38679C0C801B70120E030E0CC
:1002900046E953E4DCD4882364F5C801B70120E0C3
:1002A00030E040E753E48FD29058A4019301DDD2AF
:1002B00020E030E040E752E4CDD32D853E854F85E8
:1002C0005889ACD2D2016D937D938D939C931397F3
:1002D0008D859E85AF85B889F20184839583A68339
:1002E000B783D2011896AD92BD92CD92DC921B9746
:1002F00044C0C801B70120E030E044EB53E4D2D45D
:10030000181654F1F201A082B182C282D3828D8587
:100310009E85AF85B88984839583A683B783C801FA
:10032000B70120E030E044EB53E44DD29058A401F3
:1003300093019BD220E030E040E752E48BD32D853F
:100340003E854F8558896AD2D20118966D937D9368
:100350008D939C931B9711C080E090E0A0E0B0E0EB
:10036000F20180839183A283B38384839583A683E0
:10037000B78380879187A287B38760960FB6F8947A
:10038000DEBF0FBECDBFCF91DF911F910F91FF90C8
:10039000EF90DF90CF90BF90AF909F908F907F9025
:1003A0006F905F904F9008954F925F926F927F92FF
:1003B0008F929F92AF92BF92CF92DF92EF92FF9275
:1003C0000F931F93DF93CF93CDB7DEB768970FB628
:1003D000F894DEBF0FBECDBF88E084B980E68AB94D
:1003E00080E090E0A0E8BFE38D839E83AF83B88771
:1003F00080E090E0A0E0BFE389879A87AB87BC8765
:1004000093EA94BD81E085BD9093B0008093B100E4
:100410000F2EF0E08F2EF0E09F2EF0E0AF2EF0E0F8
:10042000BF2EF02D9DE0492E512C4C0E5D1E80E21A
:10043000682E8EE4782E0AC00F2EF0E08F2EF0E0AA
:100440009F2EF0E0AF2EF0E0BF2EF02D89829A8231
:10045000AB82BC82E980FA800B811C812D813E81B8
:100460004F81588569857A858B859C856201F6DD8B
:100470006D857E858F85988920E030E04FE753E4D5
:10048000F4D12FD067BD69897A898B899C8920E056
:1004900030E049E353E4E9D124D068BD6D897E8919
:1004A0008F89988D20E030E046E153E4DED119D009
:1004B0006093B300C3010197F1F7C501B40120E0D7
:1004C00030E843EB53E46DD3882309F4B5CFC5017D
:1004D000B40120E030E040E85FE3A0D14B015C01D3
:1004E000B5CFEF92FF920F931F937B018C0120E019
:1004F00030E040E05FE480D388237CF0C801B7019E
:1005000020E030E040E05FE45ED1F7D39B01AC0136
:10051000205030404040504805C0C801B701EDD3DD
:100520009B01AC01B901CA011F910F91FF90EF909F
:100530000895A0E0B0E0EEE9F2E0D6C5DC012B01C1
:10054000FA019C91923008F439C1EB018881823024
:1005500008F433C1943069F4843009F02FC1119646
:100560009C9111978981981709F428C1A0E0B1E006
:1005700025C1843009F421C18230A9F4923009F0F8
:100580001DC19A01AD0188E0EA010990AE01E901BF
:1005900009929E018150C1F7E201898111969C91D7
:1005A0008923818308C1923009F407C112962D90E6
:1005B0003C901397EB018A819B811496AD90BD907E
:1005C000CD90DC901797EC80FD800E811F8191010A
:1005D000281B390BB90137FF04C066277727621B38
:1005E000730B603271050CF061C0121613066CF5C6
:1005F00037014801062E04C0969487947794679437
:100600000A94D2F721E030E040E050E004C0220F2D
:10061000331F441F551F6A95D2F721503040404088
:1006200050402E213F214023512321153105410502
:10063000510521F021E030E040E050E079018A01ED
:10064000E628F728082919293CC0232BD1F1260ECA
:10065000371E35014601062E04C096948794779480
:1006600067940A94D2F721E030E040E050E004C003
:10067000220F331F441F551F6A95D2F72150304077
:10068000404050402A213B214C215D21211531055C
:100690004105510521F021E030E040E050E05901F2
:1006A0006A01A628B728C828D9280BC08215930547
:1006B0002CF01C01AA24BB24650103C0EE24FF24F6
:1006C000870111969C91D20111968C91981709F48B
:1006D00045C0992339F0A80197012A193B094C0913
:1006E0005D0906C0A60195012E193F09400B510B6B
:1006F00057FD08C0118233822282248335834683CA
:1007000057831DC081E08183338222828827992705
:10071000DC01821B930BA40BB50B84839583A6830A
:10072000B7830DC0220F331F441F551F2483358309
:1007300046835783828193810197938382832481A7
:10074000358146815781DA01C9010197A109B109B3
:100750008F5F9F4FAF4FBF4328F30BC0918333820E
:100760002282EA0CFB1C0C1D1D1DE482F58206830F
:10077000178383E08083248135814681578157FF29
:100780001AC0C901AA2797FDA095BA2F8170907051
:10079000A070B0705695479537952795822B932B6F
:1007A000A42BB52B84839583A683B7838281938101
:1007B000019693838283DF0101C0D201CD01CDB7C1
:1007C000DEB7E2E1ADC4A0E2B0E0E8EEF3E098C449
:1007D00069837A838B839C832D833E834F835887E1
:1007E000E9E0EE2EF12CEC0EFD1ECE010196B701D4
:1007F000AAD38E010F5E1F4FCE010596B801A3D379
:100800008A8991E089278A8BC701B801AE01475ECA
:100810005F4F8FDEC3D2A096E6E08EC4A0E2B0E0C8
:10082000E3E1F4E06DC469837A838B839C832D8339
:100830003E834F835887F9E0EF2EF12CEC0EFD1E1E
:10084000CE010196B7017FD38E010F5E1F4FCE01FF
:100850000596B80178D3C701B801AE01475E5F4F76
:1008600068DE9CD2A096E6E067C4A0E2B0E0EAE3CE
:10087000F4E03AC469837A838B839C832D833E831F
:100880004F835887CE010196BE01675F7F4F5BD3D0
:10089000CE010596BE016F5E7F4F55D3998592308C
:1008A00088F089898230C8F0943019F4823051F48C
:1008B00004C0843029F4923081F480E091E0C6C015
:1008C000923049F420E09A858A89981321E02A879A
:1008D000CE010996BBC0823049F420E09A858A890E
:1008E000981321E02A8BCE014196B0C02D843E841E
:1008F0004F8458886D887E888F88988CEE24FF24DA
:100900008701AA24BB24650140E050E060E070E06C
:10091000E0E0F0E0C10181709070892BE9F0E60C15
:10092000F71C081D191D9A01AB012A0D3B1D4C1D1A
:100930005D1D80E090E0A0E0B0E0E614F70408055B
:10094000190520F481E090E0A0E0B0E0BA01A9012F
:10095000480F591F6A1F7B1FAA0CBB1CCC1CDD1C37
:1009600097FE08C081E090E0A0E0B0E0A82AB92A94
:10097000CA2ADB2A3196E032F10549F0660C771C71
:10098000881C991C5694479437942794C3CFFA85B2
:10099000EA892B893C898B859C85280F391F2E5F1E
:1009A0003F4F17C0CA0181709070892B61F0169576
:1009B0000795F794E79480E090E0A0E0B0E8E82A9B
:1009C000F92A0A2B1B2B76956795579547952F5F2C
:1009D0003F4F77FDE7CF0CC0440F551F661F771FB1
:1009E00017FD4160EE0CFF1C001F111F215030400D
:1009F000403090E0590790E0690790E4790760F390
:100A00002B8F3C8FDB01CA018F779070A070B07084
:100A100080349105A105B10561F447FD0AC0E114D8
:100A2000F1040105110529F0405C5F4F6F4F7F4FC6
:100A300040781A8EFE1711F081E08A8F4D8F5E8FFD
:100A40006F8F78A383E0898FCE014996A7D1A096B6
:100A5000E2E166C3A8E1B0E0EFE2F5E04DC36983EF
:100A60007A838B839C832D833E834F835887B9E0A1
:100A7000EB2EF12CEC0EFD1ECE010196B70163D2D8
:100A80008E010F5E1F4FCE010596B8015CD22985FD
:100A9000223008F47EC03989323010F4B8017CC0AD
:100AA0008A859A8989278A87243011F0223031F487
:100AB000231709F06EC060E071E06EC0343039F485
:100AC0001D861E861F86188A1C861B8604C032302F
:100AD00021F484E08987B7015FC02B853C858B8931
:100AE0009C89281B390B3C872B87ED84FE840F855E
:100AF0001889AD88BE88CF88D88CEA14FB040C0511
:100B00001D0540F4EE0CFF1C001F111F215030404A
:100B10003C872B8720E030E040E050E080E090E030
:100B2000A0E0B0E460E070E0EA14FB040C051D05F1
:100B300040F0282B392B4A2B5B2BEA18FB080C09B9
:100B40001D09B695A79597958795EE0CFF1C001F7C
:100B5000111F6F5F7F4F6F31710531F7DA01C901E6
:100B60008F779070A070B07080349105A105B105A9
:100B700061F427FD0AC0E114F1040105110529F013
:100B8000205C3F4F4F4F5F4F20782D873E874F8728
:100B9000588BBE01675F7F4FCB0100D16896EAE0BA
:100BA000C7C2A8E1B0E0E6EDF5E0AAC269837A83A6
:100BB0008B839C832D833E834F83588789E0E82E67
:100BC000F12CEC0EFD1ECE010196B701BCD18E01B9
:100BD0000F5E1F4FCE010596B801B5D189858230D1
:100BE00038F08989823020F0C701B80124D201C0D1
:100BF00081E06896E6E0A0C2A8E1B0E0E1E0F6E0BE
:100C00007FC269837A838B839C832D833E834F834A
:100C1000588789E0E82EF12CEC0EFD1ECE010196DE
:100C2000B70191D18E010F5E1F4FCE010596B8011D
:100C30008AD18985823038F08989823020F0C701D5
:100C4000B801F9D101C08FEF6896E6E075C2A8E15E
:100C5000B0E0ECE2F6E054C269837A838B839C8334
:100C60002D833E834F83588789E0E82EF12CEC0ECC
:100C7000FD1ECE010196B70166D18E010F5E1F4F9A
:100C8000CE010596B8015FD18985823038F0898917
:100C9000823020F0C701B801CED101C081E0689652
:100CA000E6E04AC2A8E1B0E0E7E5F6E029C26983E0
:100CB0007A838B839C832D833E834F83588789E07F
:100CC000E82EF12CEC0EFD1ECE010196B7013BD1B2
:100CD0008E010F5E1F4FCE010596B80134D1898574
:100CE000823038F08989823020F0C701B801A3D161
:100CF00001C081E06896E6E01FC2ACE0B0E0E2E847
:100D0000F6E002C269837A838B839C83CE010196CD
:100D1000BE016B5F7F4F17D18D81823061F18230D0
:100D200050F1843021F48E81882351F12EC02F811F
:100D3000388537FD20C06E812F3131051CF06623C8
:100D4000F9F023C08EE190E0821B930B29853A8550
:100D50004B855C8504C056954795379527958A95B0
:100D6000D2F76623B1F050954095309521953F4FCD
:100D70004F4F5F4F0EC020E030E040E050E009C030
:100D80002FEF3FEF4FEF5FE704C020E030E040E09F
:100D900050E8B901CA012C96E2E0D2C1DF92EF928D
:100DA000FF920F931F93FC01E480F5800681178169
:100DB000D1808081823048F480E090E0A0E1B0E012
:100DC000E82AF92A0A2B1B2BA5C0843009F49FC0FE
:100DD000823021F4EE24FF24870105C0E114F104E0
:100DE0000105110519F4E0E0F0E096C0628173811D
:100DF0009FEF623879070CF05BC022E83FEF261BBB
:100E0000370B2A3131052CF020E030E040E050E093
:100E10002AC0B801A701022E04C0769567955795A0
:100E200047950A94D2F781E090E0A0E0B0E004C0DA
:100E3000880F991FAA1FBB1F2A95D2F70197A109F6
:100E4000B1098E219F21A023B1230097A105B105EF
:100E500021F081E090E0A0E0B0E09A01AB01282B06
:100E6000392B4A2B5B2BDA01C9018F779070A07068
:100E7000B07080349105A105B10539F427FF09C090
:100E8000205C3F4F4F4F5F4F04C0215C3F4F4F4F9F
:100E90005F4FE0E0F0E02030A0E03A07A0E04A0732
:100EA000A0E45A0710F0E1E0F0E079018A0127C0E0
:100EB0006038710564F5FB01E158FF4FD801C701A7
:100EC0008F779070A070B07080349105A105B10546
:100ED00039F4E7FE0DC080E490E0A0E0B0E004C08B
:100EE0008FE390E0A0E0B0E0E80EF91E0A1F1B1FA0
:100EF00017FF05C016950795F794E794319687E09C
:100F000016950795F794E7948A95D1F705C0EE24D6
:100F1000FF248701EFEFF0E06E2F67956627679556
:100F2000902F9F77D794DD24D7948E2F8695492FC5
:100F3000462B582F5D29B701CA011F910F91FF90D1
:100F4000EF90DF900895FC01DB0140815181228107
:100F5000622F6F7770E0221F2227221F9381892F33
:100F6000880F822B282F30E0991F9927991F1196FF
:100F70009C93119721153105A9F54115510561057E
:100F8000710511F482E037C082E89FEF13969C93BD
:100F90008E9312979A01AB0167E0220F331F441F13
:100FA000551F6A95D1F783E08C930DC0220F331F34
:100FB000441F551F12968D919C911397019713967C
:100FC0009C938E931297203080E0380780E048078A
:100FD00080E4580758F314962D933D934D935C93FA
:100FE000179708952F3F310579F441155105610593
:100FF000710519F484E08C93089564FF03C081E0C7
:101000008C9312C01C9210C02F57304013963C9303
:101010002E93129783E08C9387E0440F551F661F31
:10102000771F8A95D1F7706414964D935D936D93F5
:101030007C93179708951F93DC01FB019C919230DC
:1010400008F447C08081823008F443C0943051F4E2
:1010500011961C91843099F58181682F70E0611B95
:1010600071093FC0843021F0923031F48230B9F1FF
:101070008181882389F12DC011961C9111978230AE
:10108000F1F081811817D9F412962D913C911397A4
:10109000828193818217930794F028173907BCF057
:1010A00014968D919D910D90BC91A02D2481358138
:1010B00046815781281739074A075B0718F411231F
:1010C00041F00AC082179307A407B50740F4112323
:1010D00019F061E070E005C06FEF7FEF02C060E0E3
:1010E00070E0CB011F9108952F923F924F925F9233
:1010F0006F927F928F929F92AF92BF92CF92DF9228
:10110000EF92FF920F931F93CF93DF93CDB7DEB78C
:10111000CA1BDB0B0FB6F894DEBF0FBECDBF099420
:101120002A88398848885F846E847D848C849B8477
:10113000AA84B984C884DF80EE80FD800C811B8185
:10114000AA81B981CE0FD11D0FB6F894DEBF0FBEB4
:0A115000CDBFED010895F894FFCF24
:08115A0000000000000000008D
:00000001FF
