:1000000019C033C032C031C030C02FC02EC02DC087
:100010002CC02BC02AC029C028C027C026C025C09C
:1000200096C023C022C021C020C01FC01EC01DC05A
:100030001CC01BC011241FBECFEFD4E0DEBFCDBF5C
:1000400011E0A0E0B1E0E2ECF1E002C005900D9219
:10005000AC30B107D9F711E0ACE0B1E001C01D92BE
:10006000AD30B107E1F702D0AAC0CACF80E88093D3
:10007000610010926100789481E085BD80936E00EC
:1000800087E08AB98BB960910801709109014091AC
:100090000A0150910B012091060130910701E0E126
:1000A000F7E2CF010197F1F78091000190910101F2
:1000B000820F931F909301018093000180910401AE
:1000C00090910501840F951F909305018093040181
:1000D0008091020190910301860F971F9093030175
:1000E000809302018091000190910101892B11F40C
:1000F00021E030E080910001909101018F3F910556
:1001000011F42FEF3FEF8091020190910301892BB1
:1001100011F461E070E080910201909103018F3F42
:10012000910511F46FEF7FEF80910401909105012B
:10013000892B11F441E050E0809104019091050178
:100140008F3F910509F0ADCF4FEF5FEFAACF1F9220
:100150000F920FB60F9211242F933F934F938F93CB
:100160009F9340910C01442319F459985A98589838
:10017000242F30E080910001909101012817390768
:1001800009F45A9A809104019091050128173907C2
:1001900009F4589A809102019091030128173907B8
:1001A00009F4599A4F5F40930C019F918F914F91A1
:1001B0003F912F910F900FBE0F901F901895F894BC
:0201C000FFCF6F
:0C01C200FF0001008000FFFF01000100B1
:00000001FF
