:1000000019C020C01FC01EC01DC01CC01BC01AC00C
:1000100019C018C017C016C015C014C013C012C034
:1000200011C010C00FC00EC00DC00CC00BC00AC064
:1000300009C008C011241FBECFEFD4E0DEBFCDBF82
:1000400002D04DC0DDCFDF93CF93CDB7DEB72A9777
:100050000FB6F894DEBF0FBECDBF8FEF8AB987E031
:1000600084B95F9A15B882E089838BE38A8384E13F
:100070008B8381E18C8389E28D8381E48E8380E4AC
:100080008F838BE18887198681E08A8720E030E0C2
:1000900040E050E0BE016F5F7F4FA2E091E04F9BD8
:1000A00011C02F5F3F4F2A30310564F04A305105AF
:1000B0002CF020E030E040E050E004C04F5F5F4FA4
:1000C00020E030E0FB01E40FF51F80818BB9A5B97A
:1000D000FB01E20FF31F80818BB995B9E0CFF89453
:0200E000FFCF50
:00000001FF
