:1000000019C028C027C026C025C024C023C022C0D4
:1000100021C020C01FC01EC01DC01CC01BC01AC0F4
:1000200019C018C017C016C015C014C013C012C024
:1000300011C010C011241FBECFEFD4E0DEBFCDBF72
:1000400011E0A0E0B1E001C01D92A230B107E1F7DC
:1000500008D009C1D5CF82E085B9089581E085B97E
:1000600008958FEF8AB983E084B915B880917A003A
:10007000876080937A0080917C00806480937C000C
:1000800080917C008F7780937C0080917B00887FBB
:1000900080937B0080917A00806280937A008091C7
:1000A0007A00806880937A0080917A0080648093DF
:1000B0007A0062E04AEF50E0BBE371E0FCE4A9E2C1
:1000C000E4E120917800309179002F37310590F4E8
:1000D00020E030E06BB965B9CA010197F1F7BBB90F
:1000E00075B9CA010197F1F72F5F3F4F24363105EB
:1000F00089F7E7CFC9018F5790408F37910590F46A
:1001000020E030E06BB965B9CA010197F1F7EBB9AE
:1001100075B9CA010197F1F72F5F3F4F24363105BA
:1001200089F7CFCFC9018E5F90408F37910590F44A
:1001300020E030E06BB965B9CA010197F1F7ABB9BE
:1001400075B9CA010197F1F72F5F3F4F243631058A
:1001500089F7B7CFC9018D5791408F37910590F43A
:1001600020E030E06BB965B9CA010197F1F71BB81F
:1001700075B9CA010197F1F72F5F3F4F243631055A
:1001800089F79FCFC9018C5F91408F37910590F41B
:1001900020E030E0BBB965B9CA010197F1F76BB94E
:1001A00075B9CA010197F1F72F5F3F4F243631052A
:1001B00089F787CFC9018B5792408F37910590F40B
:1001C00020E030E0EBB965B9CA010197F1F76BB9EE
:1001D00075B9CA010197F1F72F5F3F4F24363105FA
:1001E00089F76FCFC9018A5F92408F37910590F4EC
:1001F00020E030E0ABB965B9CA010197F1F76BB9FE
:1002000075B9CA010197F1F72F5F3F4F24363105C9
:1002100089F757CF295733402F37310590F420E025
:1002200030E01BB865B9CA010197F1F76BB975B930
:10023000CA010197F1F72F5F3F4F2436310589F747
:1002400040CF20E030E0FBB965B9CA010197F1F772
:10025000FBB975B9CA010197F1F72F5F3F4F2436FB
:0A026000310589F72ECFF894FFCF87
:00000001FF
