:1000000019C020C01FC01EC01DC01CC01BC01AC00C
:1000100019C018C017C016C015C014C013C012C034
:1000200011C010C00FC00EC00DC00CC00BC00AC064
:1000300009C008C011241FBECFEFD4E0DEBFCDBF82
:1000400002D088C0DDCFAF92BF92CF92DF92EF9205
:10005000FF920F931F93DF93CF93CDB7DEB72A970D
:100060000FB6F894DEBF0FBECDBF8FEF8AB983E025
:1000700084B915B882E089838BE38A8384E18B831A
:1000800081E18C8389E28D8381E48E8380E48F8398
:100090008BE18887198681E08A8700E010E06E0195
:1000A0000894C11CD11C9AEFE92EF12C82E0A82EF5
:1000B000BB24B394C8016AE070E025D0FB01EC0DCD
:1000C000FD1D4081C8016AE070E01DD0F601E80F17
:1000D000F91FE08120E030E04BB9A5B8C7010197D6
:1000E000F1F7EBB9B5B8C7010197F1F72F5F3F4FB3
:1000F000283C310589F70F5F1F4F00381105D4F2F6
:1001000000E010E0D7CF97FB092E07260AD077FD35
:1001100004D00CD006D000201AF4709561957F4F62
:100120000895F6F7909581959F4F0895AA1BBB1BE4
:1001300051E107C0AA1FBB1FA617B70710F0A61BE7
:10014000B70B881F991F5A95A9F780959095BC0108
:08015000CD010895F894FFCFE2
:00000001FF
