:1000000019C020C01FC01EC01DC01CC01BC01AC00C
:1000100019C018C017C016C015C014C013C012C034
:1000200011C010C00FC00EC00DC00CC00BC00AC064
:1000300009C008C011241FBECFEFD4E0DEBFCDBF82
:1000400002D024C0DDCF83E084B9289A80E090E01C
:1000500042E029E130E002C081E090E0189BFECF51
:10006000892B49F415B888E893E1F9013197F1F744
:100070000197D9F7F1CF45B988E893E1F9013197B4
:10008000F1F70197D9F780E090E0E8CFF894FFCF3F
:00000001FF
