:1000000019C020C01FC01EC01DC01CC01BC01AC00C
:1000100019C018C017C016C015C014C013C012C034
:1000200011C010C00FC00EC00DC00CC00BC00AC064
:1000300009C008C011241FBECFEFD4E0DEBFCDBF82
:1000400002D056C0DDCF0F931F93DF93CF93CDB770
:10005000DEB72A970FB6F894DEBF0FBECDBF8FEF85
:100060008AB987E084B95F9A15B882E089838BE307
:100070008A8384E18B8381E18C8389E28D8381E4AF
:100080008E8380E48F838BE18887198681E08A875D
:1000900020E030E040E050E0DE01119602E062EE48
:1000A00074E011E04F9B11C02F5F3F4F2A303105A4
:1000B00064F04A3051052CF020E030E040E050E0A0
:1000C00004C04F5F5F4F20E030E0FD01E40FF51FFB
:1000D00080818BB905B9CB010197F1F7FD01E20FE2
:1000E000F31F80818BB915B9CB010197F1F7DACFF6
:0400F000F894FFCFB2
:00000001FF
