:1000000019C020C01FC01EC01DC01CC01BC01AC00C
:1000100019C018C017C016C015C014C013C012C034
:1000200011C010C00FC00EC00DC00CC00BC00AC064
:1000300009C008C011241FBECFEFD4E0DEBFCDBF82
:1000400002D065C0DDCFFF920F931F93DF93CF9354
:10005000CDB7DEB760970FB6F894DEBF0FBECDBF49
:100060008FEF8AB983E084B915B882E089838BE386
:100070008A8384E18B8381E18C8389E28D8381E4AF
:100080008E8380E48F838BE18887198681E08A875D
:1000900088E08B8780E68C8786E48D8780E38E8777
:1000A00084E48F878CE4888B40E050E08E010F5F02
:1000B0001F4FAAEFB0E092E0F92E71E0FA0184E060
:1000C000F595E7958A95E1F7E00FF11F6081FA0158
:1000D000EF70F070E00FF11FE08120E030E06BB9CD
:1000E000F5B8CD010197F1F7EBB975B9CD010197DD
:1000F000F1F72F5F3F4F283C310589F74F5F5F4F86
:100100004F3F5105D9F2D4F240E050E0D7CFF894F8
:02011000FFCF1F
:00000001FF
